{"contracts/Greeter.sol":{"Greeter":{"abi":[{"inputs":[{"internalType":"address","name":"semaphoreAddress","type":"address"},{"internalType":"uint256","name":"_groupId","type":"uint256"}],"stateMutability":"nonpayable","type":"constructor"},{"anonymous":false,"inputs":[{"indexed":false,"internalType":"bytes32","name":"greeting","type":"bytes32"}],"name":"NewGreeting","type":"event"},{"anonymous":false,"inputs":[{"indexed":false,"internalType":"uint256","name":"identityCommitment","type":"uint256"},{"indexed":false,"internalType":"bytes32","name":"username","type":"bytes32"}],"name":"NewUser","type":"event"},{"inputs":[{"internalType":"bytes32","name":"greeting","type":"bytes32"},{"internalType":"uint256","name":"merkleTreeRoot","type":"uint256"},{"internalType":"uint256","name":"nullifierHash","type":"uint256"},{"internalType":"uint256[8]","name":"proof","type":"uint256[8]"}],"name":"greet","outputs":[],"stateMutability":"nonpayable","type":"function"},{"inputs":[{"internalType":"uint256","name":"identityCommitment","type":"uint256"},{"internalType":"bytes32","name":"username","type":"bytes32"}],"name":"joinGroup","outputs":[],"stateMutability":"nonpayable","type":"function"},{"inputs":[],"name":"semaphore","outputs":[{"internalType":"contract ISemaphore","name":"","type":"address"}],"stateMutability":"view","type":"function"}],"evm":{"bytecode":{"linkReferences":{},"object":"608060405234801561001057600080fd5b506040516107ee3803806107ee8339818101604052810190610032919061013f565b816000806101000a81548173ffffffffffffffffffffffffffffffffffffffff021916908373ffffffffffffffffffffffffffffffffffffffff1602179055508060018190555060008054906101000a900473ffffffffffffffffffffffffffffffffffffffff1673ffffffffffffffffffffffffffffffffffffffff1663059f1bb560015460146000306040518563ffffffff1660e01b81526004016100dc94939291906101b7565b600060405180830381600087803b1580156100f657600080fd5b505af115801561010a573d6000803e3d6000fd5b50505050505061028a565b6000815190506101248161025c565b92915050565b60008151905061013981610273565b92915050565b6000806040838503121561015257600080fd5b600061016085828601610115565b92505060206101718582860161012a565b9150509250929050565b610184816101fc565b82525050565b61019381610238565b82525050565b6101a28161024a565b82525050565b6101b18161022e565b82525050565b60006080820190506101cc60008301876101a8565b6101d96020830186610199565b6101e6604083018561018a565b6101f3606083018461017b565b95945050505050565b60006102078261020e565b9050919050565b600073ffffffffffffffffffffffffffffffffffffffff82169050919050565b6000819050919050565b60006102438261022e565b9050919050565b60006102558261022e565b9050919050565b610265816101fc565b811461027057600080fd5b50565b61027c8161022e565b811461028757600080fd5b50565b610555806102996000396000f3fe608060405234801561001057600080fd5b50600436106100415760003560e01c80637b5d253414610046578063a3867d9114610064578063a3a8e3c514610080575b600080fd5b61004e61009c565b60405161005b91906103bb565b60405180910390f35b61007e60048036038101906100799190610326565b6100c0565b005b61009a600480360381019061009591906102c2565b6101a4565b005b60008054906101000a900473ffffffffffffffffffffffffffffffffffffffff1681565b60008054906101000a900473ffffffffffffffffffffffffffffffffffffffff1673ffffffffffffffffffffffffffffffffffffffff16631783efc3600154846040518363ffffffff1660e01b815260040161011d9291906103ff565b600060405180830381600087803b15801561013757600080fd5b505af115801561014b573d6000803e3d6000fd5b505050508060026000848152602001908152602001600020819055507fa50a3b4d29437818306d1859dff6fb2b1884a4f487bd1d91a8cc026ac4c9453782826040516101989291906103d6565b60405180910390a15050565b60008054906101000a900473ffffffffffffffffffffffffffffffffffffffff1673ffffffffffffffffffffffffffffffffffffffff16638b69310a600154858786600154876040518763ffffffff1660e01b815260040161020b96959493929190610428565b600060405180830381600087803b15801561022557600080fd5b505af1158015610239573d6000803e3d6000fd5b505050507fdca4fe235351d51f8e3444599c9a1afc6d12397dcdc4fd5df11bb6cfe0eb5a778460405161026c91906103a0565b60405180910390a150505050565b60008190508260206008028201111561029257600080fd5b92915050565b6000813590506102a7816104f1565b92915050565b6000813590506102bc81610508565b92915050565b60008060008061016085870312156102d957600080fd5b60006102e787828801610298565b94505060206102f8878288016102ad565b9350506040610309878288016102ad565b925050606061031a8782880161027a565b91505092959194509250565b6000806040838503121561033957600080fd5b6000610347858286016102ad565b925050602061035885828601610298565b9150509250929050565b61036f61010083836104e2565b5050565b61037c8161048a565b82525050565b61038b816104be565b82525050565b61039a816104b4565b82525050565b60006020820190506103b56000830184610373565b92915050565b60006020820190506103d06000830184610382565b92915050565b60006040820190506103eb6000830185610391565b6103f86020830184610373565b9392505050565b60006040820190506104146000830185610391565b6104216020830184610391565b9392505050565b60006101a08201905061043e6000830189610391565b61044b6020830188610391565b6104586040830187610373565b6104656060830186610391565b6104726080830185610391565b61047f60a0830184610362565b979650505050505050565b6000819050919050565b600073ffffffffffffffffffffffffffffffffffffffff82169050919050565b6000819050919050565b60006104c9826104d0565b9050919050565b60006104db82610494565b9050919050565b82818337600083830152505050565b6104fa8161048a565b811461050557600080fd5b50565b610511816104b4565b811461051c57600080fd5b5056fea26469706673582212207d7793d24fe0d89534d745a0b03f86d66a335bb063022fecdee90d0bdf4ab44a64736f6c63430008040033","opcodes":"PUSH1 0x80 PUSH1 0x40 MSTORE CALLVALUE DUP1 ISZERO PUSH2 0x10 JUMPI PUSH1 0x0 DUP1 REVERT JUMPDEST POP PUSH1 0x40 MLOAD PUSH2 0x7EE CODESIZE SUB DUP1 PUSH2 0x7EE DUP4 CODECOPY DUP2 DUP2 ADD PUSH1 0x40 MSTORE DUP2 ADD SWAP1 PUSH2 0x32 SWAP2 SWAP1 PUSH2 0x13F JUMP JUMPDEST DUP2 PUSH1 0x0 DUP1 PUSH2 0x100 EXP DUP2 SLOAD DUP2 PUSH20 0xFFFFFFFFFFFFFFFFFFFFFFFFFFFFFFFFFFFFFFFF MUL NOT AND SWAP1 DUP4 PUSH20 0xFFFFFFFFFFFFFFFFFFFFFFFFFFFFFFFFFFFFFFFF AND MUL OR SWAP1 SSTORE POP DUP1 PUSH1 0x1 DUP2 SWAP1 SSTORE POP PUSH1 0x0 DUP1 SLOAD SWAP1 PUSH2 0x100 EXP SWAP1 DIV PUSH20 0xFFFFFFFFFFFFFFFFFFFFFFFFFFFFFFFFFFFFFFFF AND PUSH20 0xFFFFFFFFFFFFFFFFFFFFFFFFFFFFFFFFFFFFFFFF AND PUSH4 0x59F1BB5 PUSH1 0x1 SLOAD PUSH1 0x14 PUSH1 0x0 ADDRESS PUSH1 0x40 MLOAD DUP6 PUSH4 0xFFFFFFFF AND PUSH1 0xE0 SHL DUP2 MSTORE PUSH1 0x4 ADD PUSH2 0xDC SWAP5 SWAP4 SWAP3 SWAP2 SWAP1 PUSH2 0x1B7 JUMP JUMPDEST PUSH1 0x0 PUSH1 0x40 MLOAD DUP1 DUP4 SUB DUP2 PUSH1 0x0 DUP8 DUP1 EXTCODESIZE ISZERO DUP1 ISZERO PUSH2 0xF6 JUMPI PUSH1 0x0 DUP1 REVERT JUMPDEST POP GAS CALL ISZERO DUP1 ISZERO PUSH2 0x10A JUMPI RETURNDATASIZE PUSH1 0x0 DUP1 RETURNDATACOPY RETURNDATASIZE PUSH1 0x0 REVERT JUMPDEST POP POP POP POP POP POP PUSH2 0x28A JUMP JUMPDEST PUSH1 0x0 DUP2 MLOAD SWAP1 POP PUSH2 0x124 DUP2 PUSH2 0x25C JUMP JUMPDEST SWAP3 SWAP2 POP POP JUMP JUMPDEST PUSH1 0x0 DUP2 MLOAD SWAP1 POP PUSH2 0x139 DUP2 PUSH2 0x273 JUMP JUMPDEST SWAP3 SWAP2 POP POP JUMP JUMPDEST PUSH1 0x0 DUP1 PUSH1 0x40 DUP4 DUP6 SUB SLT ISZERO PUSH2 0x152 JUMPI PUSH1 0x0 DUP1 REVERT JUMPDEST PUSH1 0x0 PUSH2 0x160 DUP6 DUP3 DUP7 ADD PUSH2 0x115 JUMP JUMPDEST SWAP3 POP POP PUSH1 0x20 PUSH2 0x171 DUP6 DUP3 DUP7 ADD PUSH2 0x12A JUMP JUMPDEST SWAP2 POP POP SWAP3 POP SWAP3 SWAP1 POP JUMP JUMPDEST PUSH2 0x184 DUP2 PUSH2 0x1FC JUMP JUMPDEST DUP3 MSTORE POP POP JUMP JUMPDEST PUSH2 0x193 DUP2 PUSH2 0x238 JUMP JUMPDEST DUP3 MSTORE POP POP JUMP JUMPDEST PUSH2 0x1A2 DUP2 PUSH2 0x24A JUMP JUMPDEST DUP3 MSTORE POP POP JUMP JUMPDEST PUSH2 0x1B1 DUP2 PUSH2 0x22E JUMP JUMPDEST DUP3 MSTORE POP POP JUMP JUMPDEST PUSH1 0x0 PUSH1 0x80 DUP3 ADD SWAP1 POP PUSH2 0x1CC PUSH1 0x0 DUP4 ADD DUP8 PUSH2 0x1A8 JUMP JUMPDEST PUSH2 0x1D9 PUSH1 0x20 DUP4 ADD DUP7 PUSH2 0x199 JUMP JUMPDEST PUSH2 0x1E6 PUSH1 0x40 DUP4 ADD DUP6 PUSH2 0x18A JUMP JUMPDEST PUSH2 0x1F3 PUSH1 0x60 DUP4 ADD DUP5 PUSH2 0x17B JUMP JUMPDEST SWAP6 SWAP5 POP POP POP POP POP JUMP JUMPDEST PUSH1 0x0 PUSH2 0x207 DUP3 PUSH2 0x20E JUMP JUMPDEST SWAP1 POP SWAP2 SWAP1 POP JUMP JUMPDEST PUSH1 0x0 PUSH20 0xFFFFFFFFFFFFFFFFFFFFFFFFFFFFFFFFFFFFFFFF DUP3 AND SWAP1 POP SWAP2 SWAP1 POP JUMP JUMPDEST PUSH1 0x0 DUP2 SWAP1 POP SWAP2 SWAP1 POP JUMP JUMPDEST PUSH1 0x0 PUSH2 0x243 DUP3 PUSH2 0x22E JUMP JUMPDEST SWAP1 POP SWAP2 SWAP1 POP JUMP JUMPDEST PUSH1 0x0 PUSH2 0x255 DUP3 PUSH2 0x22E JUMP JUMPDEST SWAP1 POP SWAP2 SWAP1 POP JUMP JUMPDEST PUSH2 0x265 DUP2 PUSH2 0x1FC JUMP JUMPDEST DUP2 EQ PUSH2 0x270 JUMPI PUSH1 0x0 DUP1 REVERT JUMPDEST POP JUMP JUMPDEST PUSH2 0x27C DUP2 PUSH2 0x22E JUMP JUMPDEST DUP2 EQ PUSH2 0x287 JUMPI PUSH1 0x0 DUP1 REVERT JUMPDEST POP JUMP JUMPDEST PUSH2 0x555 DUP1 PUSH2 0x299 PUSH1 0x0 CODECOPY PUSH1 0x0 RETURN INVALID PUSH1 0x80 PUSH1 0x40 MSTORE CALLVALUE DUP1 ISZERO PUSH2 0x10 JUMPI PUSH1 0x0 DUP1 REVERT JUMPDEST POP PUSH1 0x4 CALLDATASIZE LT PUSH2 0x41 JUMPI PUSH1 0x0 CALLDATALOAD PUSH1 0xE0 SHR DUP1 PUSH4 0x7B5D2534 EQ PUSH2 0x46 JUMPI DUP1 PUSH4 0xA3867D91 EQ PUSH2 0x64 JUMPI DUP1 PUSH4 0xA3A8E3C5 EQ PUSH2 0x80 JUMPI JUMPDEST PUSH1 0x0 DUP1 REVERT JUMPDEST PUSH2 0x4E PUSH2 0x9C JUMP JUMPDEST PUSH1 0x40 MLOAD PUSH2 0x5B SWAP2 SWAP1 PUSH2 0x3BB JUMP JUMPDEST PUSH1 0x40 MLOAD DUP1 SWAP2 SUB SWAP1 RETURN JUMPDEST PUSH2 0x7E PUSH1 0x4 DUP1 CALLDATASIZE SUB DUP2 ADD SWAP1 PUSH2 0x79 SWAP2 SWAP1 PUSH2 0x326 JUMP JUMPDEST PUSH2 0xC0 JUMP JUMPDEST STOP JUMPDEST PUSH2 0x9A PUSH1 0x4 DUP1 CALLDATASIZE SUB DUP2 ADD SWAP1 PUSH2 0x95 SWAP2 SWAP1 PUSH2 0x2C2 JUMP JUMPDEST PUSH2 0x1A4 JUMP JUMPDEST STOP JUMPDEST PUSH1 0x0 DUP1 SLOAD SWAP1 PUSH2 0x100 EXP SWAP1 DIV PUSH20 0xFFFFFFFFFFFFFFFFFFFFFFFFFFFFFFFFFFFFFFFF AND DUP2 JUMP JUMPDEST PUSH1 0x0 DUP1 SLOAD SWAP1 PUSH2 0x100 EXP SWAP1 DIV PUSH20 0xFFFFFFFFFFFFFFFFFFFFFFFFFFFFFFFFFFFFFFFF AND PUSH20 0xFFFFFFFFFFFFFFFFFFFFFFFFFFFFFFFFFFFFFFFF AND PUSH4 0x1783EFC3 PUSH1 0x1 SLOAD DUP5 PUSH1 0x40 MLOAD DUP4 PUSH4 0xFFFFFFFF AND PUSH1 0xE0 SHL DUP2 MSTORE PUSH1 0x4 ADD PUSH2 0x11D SWAP3 SWAP2 SWAP1 PUSH2 0x3FF JUMP JUMPDEST PUSH1 0x0 PUSH1 0x40 MLOAD DUP1 DUP4 SUB DUP2 PUSH1 0x0 DUP8 DUP1 EXTCODESIZE ISZERO DUP1 ISZERO PUSH2 0x137 JUMPI PUSH1 0x0 DUP1 REVERT JUMPDEST POP GAS CALL ISZERO DUP1 ISZERO PUSH2 0x14B JUMPI RETURNDATASIZE PUSH1 0x0 DUP1 RETURNDATACOPY RETURNDATASIZE PUSH1 0x0 REVERT JUMPDEST POP POP POP POP DUP1 PUSH1 0x2 PUSH1 0x0 DUP5 DUP2 MSTORE PUSH1 0x20 ADD SWAP1 DUP2 MSTORE PUSH1 0x20 ADD PUSH1 0x0 KECCAK256 DUP2 SWAP1 SSTORE POP PUSH32 0xA50A3B4D29437818306D1859DFF6FB2B1884A4F487BD1D91A8CC026AC4C94537 DUP3 DUP3 PUSH1 0x40 MLOAD PUSH2 0x198 SWAP3 SWAP2 SWAP1 PUSH2 0x3D6 JUMP JUMPDEST PUSH1 0x40 MLOAD DUP1 SWAP2 SUB SWAP1 LOG1 POP POP JUMP JUMPDEST PUSH1 0x0 DUP1 SLOAD SWAP1 PUSH2 0x100 EXP SWAP1 DIV PUSH20 0xFFFFFFFFFFFFFFFFFFFFFFFFFFFFFFFFFFFFFFFF AND PUSH20 0xFFFFFFFFFFFFFFFFFFFFFFFFFFFFFFFFFFFFFFFF AND PUSH4 0x8B69310A PUSH1 0x1 SLOAD DUP6 DUP8 DUP7 PUSH1 0x1 SLOAD DUP8 PUSH1 0x40 MLOAD DUP8 PUSH4 0xFFFFFFFF AND PUSH1 0xE0 SHL DUP2 MSTORE PUSH1 0x4 ADD PUSH2 0x20B SWAP7 SWAP6 SWAP5 SWAP4 SWAP3 SWAP2 SWAP1 PUSH2 0x428 JUMP JUMPDEST PUSH1 0x0 PUSH1 0x40 MLOAD DUP1 DUP4 SUB DUP2 PUSH1 0x0 DUP8 DUP1 EXTCODESIZE ISZERO DUP1 ISZERO PUSH2 0x225 JUMPI PUSH1 0x0 DUP1 REVERT JUMPDEST POP GAS CALL ISZERO DUP1 ISZERO PUSH2 0x239 JUMPI RETURNDATASIZE PUSH1 0x0 DUP1 RETURNDATACOPY RETURNDATASIZE PUSH1 0x0 REVERT JUMPDEST POP POP POP POP PUSH32 0xDCA4FE235351D51F8E3444599C9A1AFC6D12397DCDC4FD5DF11BB6CFE0EB5A77 DUP5 PUSH1 0x40 MLOAD PUSH2 0x26C SWAP2 SWAP1 PUSH2 0x3A0 JUMP JUMPDEST PUSH1 0x40 MLOAD DUP1 SWAP2 SUB SWAP1 LOG1 POP POP POP POP JUMP JUMPDEST PUSH1 0x0 DUP2 SWAP1 POP DUP3 PUSH1 0x20 PUSH1 0x8 MUL DUP3 ADD GT ISZERO PUSH2 0x292 JUMPI PUSH1 0x0 DUP1 REVERT JUMPDEST SWAP3 SWAP2 POP POP JUMP JUMPDEST PUSH1 0x0 DUP2 CALLDATALOAD SWAP1 POP PUSH2 0x2A7 DUP2 PUSH2 0x4F1 JUMP JUMPDEST SWAP3 SWAP2 POP POP JUMP JUMPDEST PUSH1 0x0 DUP2 CALLDATALOAD SWAP1 POP PUSH2 0x2BC DUP2 PUSH2 0x508 JUMP JUMPDEST SWAP3 SWAP2 POP POP JUMP JUMPDEST PUSH1 0x0 DUP1 PUSH1 0x0 DUP1 PUSH2 0x160 DUP6 DUP8 SUB SLT ISZERO PUSH2 0x2D9 JUMPI PUSH1 0x0 DUP1 REVERT JUMPDEST PUSH1 0x0 PUSH2 0x2E7 DUP8 DUP3 DUP9 ADD PUSH2 0x298 JUMP JUMPDEST SWAP5 POP POP PUSH1 0x20 PUSH2 0x2F8 DUP8 DUP3 DUP9 ADD PUSH2 0x2AD JUMP JUMPDEST SWAP4 POP POP PUSH1 0x40 PUSH2 0x309 DUP8 DUP3 DUP9 ADD PUSH2 0x2AD JUMP JUMPDEST SWAP3 POP POP PUSH1 0x60 PUSH2 0x31A DUP8 DUP3 DUP9 ADD PUSH2 0x27A JUMP JUMPDEST SWAP2 POP POP SWAP3 SWAP6 SWAP2 SWAP5 POP SWAP3 POP JUMP JUMPDEST PUSH1 0x0 DUP1 PUSH1 0x40 DUP4 DUP6 SUB SLT ISZERO PUSH2 0x339 JUMPI PUSH1 0x0 DUP1 REVERT JUMPDEST PUSH1 0x0 PUSH2 0x347 DUP6 DUP3 DUP7 ADD PUSH2 0x2AD JUMP JUMPDEST SWAP3 POP POP PUSH1 0x20 PUSH2 0x358 DUP6 DUP3 DUP7 ADD PUSH2 0x298 JUMP JUMPDEST SWAP2 POP POP SWAP3 POP SWAP3 SWAP1 POP JUMP JUMPDEST PUSH2 0x36F PUSH2 0x100 DUP4 DUP4 PUSH2 0x4E2 JUMP JUMPDEST POP POP JUMP JUMPDEST PUSH2 0x37C DUP2 PUSH2 0x48A JUMP JUMPDEST DUP3 MSTORE POP POP JUMP JUMPDEST PUSH2 0x38B DUP2 PUSH2 0x4BE JUMP JUMPDEST DUP3 MSTORE POP POP JUMP JUMPDEST PUSH2 0x39A DUP2 PUSH2 0x4B4 JUMP JUMPDEST DUP3 MSTORE POP POP JUMP JUMPDEST PUSH1 0x0 PUSH1 0x20 DUP3 ADD SWAP1 POP PUSH2 0x3B5 PUSH1 0x0 DUP4 ADD DUP5 PUSH2 0x373 JUMP JUMPDEST SWAP3 SWAP2 POP POP JUMP JUMPDEST PUSH1 0x0 PUSH1 0x20 DUP3 ADD SWAP1 POP PUSH2 0x3D0 PUSH1 0x0 DUP4 ADD DUP5 PUSH2 0x382 JUMP JUMPDEST SWAP3 SWAP2 POP POP JUMP JUMPDEST PUSH1 0x0 PUSH1 0x40 DUP3 ADD SWAP1 POP PUSH2 0x3EB PUSH1 0x0 DUP4 ADD DUP6 PUSH2 0x391 JUMP JUMPDEST PUSH2 0x3F8 PUSH1 0x20 DUP4 ADD DUP5 PUSH2 0x373 JUMP JUMPDEST SWAP4 SWAP3 POP POP POP JUMP JUMPDEST PUSH1 0x0 PUSH1 0x40 DUP3 ADD SWAP1 POP PUSH2 0x414 PUSH1 0x0 DUP4 ADD DUP6 PUSH2 0x391 JUMP JUMPDEST PUSH2 0x421 PUSH1 0x20 DUP4 ADD DUP5 PUSH2 0x391 JUMP JUMPDEST SWAP4 SWAP3 POP POP POP JUMP JUMPDEST PUSH1 0x0 PUSH2 0x1A0 DUP3 ADD SWAP1 POP PUSH2 0x43E PUSH1 0x0 DUP4 ADD DUP10 PUSH2 0x391 JUMP JUMPDEST PUSH2 0x44B PUSH1 0x20 DUP4 ADD DUP9 PUSH2 0x391 JUMP JUMPDEST PUSH2 0x458 PUSH1 0x40 DUP4 ADD DUP8 PUSH2 0x373 JUMP JUMPDEST PUSH2 0x465 PUSH1 0x60 DUP4 ADD DUP7 PUSH2 0x391 JUMP JUMPDEST PUSH2 0x472 PUSH1 0x80 DUP4 ADD DUP6 PUSH2 0x391 JUMP JUMPDEST PUSH2 0x47F PUSH1 0xA0 DUP4 ADD DUP5 PUSH2 0x362 JUMP JUMPDEST SWAP8 SWAP7 POP POP POP POP POP POP POP JUMP JUMPDEST PUSH1 0x0 DUP2 SWAP1 POP SWAP2 SWAP1 POP JUMP JUMPDEST PUSH1 0x0 PUSH20 0xFFFFFFFFFFFFFFFFFFFFFFFFFFFFFFFFFFFFFFFF DUP3 AND SWAP1 POP SWAP2 SWAP1 POP JUMP JUMPDEST PUSH1 0x0 DUP2 SWAP1 POP SWAP2 SWAP1 POP JUMP JUMPDEST PUSH1 0x0 PUSH2 0x4C9 DUP3 PUSH2 0x4D0 JUMP JUMPDEST SWAP1 POP SWAP2 SWAP1 POP JUMP JUMPDEST PUSH1 0x0 PUSH2 0x4DB DUP3 PUSH2 0x494 JUMP JUMPDEST SWAP1 POP SWAP2 SWAP1 POP JUMP JUMPDEST DUP3 DUP2 DUP4 CALLDATACOPY PUSH1 0x0 DUP4 DUP4 ADD MSTORE POP POP POP JUMP JUMPDEST PUSH2 0x4FA DUP2 PUSH2 0x48A JUMP JUMPDEST DUP2 EQ PUSH2 0x505 JUMPI PUSH1 0x0 DUP1 REVERT JUMPDEST POP JUMP JUMPDEST PUSH2 0x511 DUP2 PUSH2 0x4B4 JUMP JUMPDEST DUP2 EQ PUSH2 0x51C JUMPI PUSH1 0x0 DUP1 REVERT JUMPDEST POP JUMP INVALID LOG2 PUSH5 0x6970667358 0x22 SLT KECCAK256 PUSH30 0x7793D24FE0D89534D745A0B03F86D66A335BB063022FECDEE90D0BDF4AB4 0x4A PUSH5 0x736F6C6343 STOP ADDMOD DIV STOP CALLER "},"methodIdentifiers":{"greet(bytes32,uint256,uint256,uint256[8])":"a3a8e3c5","joinGroup(uint256,bytes32)":"a3867d91","semaphore()":"7b5d2534"}}}}}