{
  "_format": "hh-sol-artifact-1",
  "contractName": "dNFT",
  "sourceName": "contracts/dNFT.sol",
  "abi": [
    {
      "inputs": [],
      "stateMutability": "nonpayable",
      "type": "constructor"
    },
    {
      "anonymous": false,
      "inputs": [
        {
          "indexed": true,
          "internalType": "address",
          "name": "owner",
          "type": "address"
        },
        {
          "indexed": true,
          "internalType": "address",
          "name": "approved",
          "type": "address"
        },
        {
          "indexed": true,
          "internalType": "uint256",
          "name": "tokenId",
          "type": "uint256"
        }
      ],
      "name": "Approval",
      "type": "event"
    },
    {
      "anonymous": false,
      "inputs": [
        {
          "indexed": true,
          "internalType": "address",
          "name": "owner",
          "type": "address"
        },
        {
          "indexed": true,
          "internalType": "address",
          "name": "operator",
          "type": "address"
        },
        {
          "indexed": false,
          "internalType": "bool",
          "name": "approved",
          "type": "bool"
        }
      ],
      "name": "ApprovalForAll",
      "type": "event"
    },
    {
      "anonymous": false,
      "inputs": [
        {
          "indexed": true,
          "internalType": "address",
          "name": "from",
          "type": "address"
        },
        {
          "indexed": true,
          "internalType": "address",
          "name": "to",
          "type": "address"
        },
        {
          "indexed": true,
          "internalType": "uint256",
          "name": "tokenId",
          "type": "uint256"
        }
      ],
      "name": "Atransfer",
      "type": "event"
    },
    {
      "anonymous": false,
      "inputs": [
        {
          "indexed": true,
          "internalType": "address",
          "name": "previousOwner",
          "type": "address"
        },
        {
          "indexed": true,
          "internalType": "address",
          "name": "newOwner",
          "type": "address"
        }
      ],
      "name": "OwnershipTransferred",
      "type": "event"
    },
    {
      "anonymous": false,
      "inputs": [
        {
          "indexed": true,
          "internalType": "address",
          "name": "from",
          "type": "address"
        },
        {
          "indexed": true,
          "internalType": "address",
          "name": "to",
          "type": "address"
        },
        {
          "indexed": true,
          "internalType": "uint256",
          "name": "tokenId",
          "type": "uint256"
        }
      ],
      "name": "Transfer",
      "type": "event"
    },
    {
      "inputs": [
        {
          "internalType": "address",
          "name": "to",
          "type": "address"
        },
        {
          "internalType": "uint256",
          "name": "tokenId",
          "type": "uint256"
        }
      ],
      "name": "approve",
      "outputs": [],
      "stateMutability": "nonpayable",
      "type": "function"
    },
    {
      "inputs": [
        {
          "internalType": "address",
          "name": "owner",
          "type": "address"
        }
      ],
      "name": "balanceOf",
      "outputs": [
        {
          "internalType": "uint256",
          "name": "",
          "type": "uint256"
        }
      ],
      "stateMutability": "view",
      "type": "function"
    },
    {
      "inputs": [
        {
          "internalType": "uint256",
          "name": "tokenId",
          "type": "uint256"
        }
      ],
      "name": "burn",
      "outputs": [],
      "stateMutability": "nonpayable",
      "type": "function"
    },
    {
      "inputs": [
        {
          "internalType": "uint256",
          "name": "tokenId",
          "type": "uint256"
        }
      ],
      "name": "getApproved",
      "outputs": [
        {
          "internalType": "address",
          "name": "",
          "type": "address"
        }
      ],
      "stateMutability": "view",
      "type": "function"
    },
    {
      "inputs": [
        {
          "internalType": "address",
          "name": "owner",
          "type": "address"
        },
        {
          "internalType": "address",
          "name": "operator",
          "type": "address"
        }
      ],
      "name": "isApprovedForAll",
      "outputs": [
        {
          "internalType": "bool",
          "name": "",
          "type": "bool"
        }
      ],
      "stateMutability": "view",
      "type": "function"
    },
    {
      "inputs": [],
      "name": "name",
      "outputs": [
        {
          "internalType": "string",
          "name": "",
          "type": "string"
        }
      ],
      "stateMutability": "view",
      "type": "function"
    },
    {
      "inputs": [],
      "name": "owner",
      "outputs": [
        {
          "internalType": "address",
          "name": "",
          "type": "address"
        }
      ],
      "stateMutability": "view",
      "type": "function"
    },
    {
      "inputs": [
        {
          "internalType": "uint256",
          "name": "tokenId",
          "type": "uint256"
        }
      ],
      "name": "ownerOf",
      "outputs": [
        {
          "internalType": "address",
          "name": "",
          "type": "address"
        }
      ],
      "stateMutability": "view",
      "type": "function"
    },
    {
      "inputs": [],
      "name": "renounceOwnership",
      "outputs": [],
      "stateMutability": "nonpayable",
      "type": "function"
    },
    {
      "inputs": [
        {
          "internalType": "address",
          "name": "to",
          "type": "address"
        },
        {
          "internalType": "string",
          "name": "uri",
          "type": "string"
        }
      ],
      "name": "safeMint",
      "outputs": [],
      "stateMutability": "nonpayable",
      "type": "function"
    },
    {
      "inputs": [
        {
          "internalType": "address",
          "name": "from",
          "type": "address"
        },
        {
          "internalType": "address",
          "name": "to",
          "type": "address"
        },
        {
          "internalType": "uint256",
          "name": "tokenId",
          "type": "uint256"
        }
      ],
      "name": "safeTransferFrom",
      "outputs": [],
      "stateMutability": "nonpayable",
      "type": "function"
    },
    {
      "inputs": [
        {
          "internalType": "address",
          "name": "from",
          "type": "address"
        },
        {
          "internalType": "address",
          "name": "to",
          "type": "address"
        },
        {
          "internalType": "uint256",
          "name": "tokenId",
          "type": "uint256"
        },
        {
          "internalType": "bytes",
          "name": "data",
          "type": "bytes"
        }
      ],
      "name": "safeTransferFrom",
      "outputs": [],
      "stateMutability": "nonpayable",
      "type": "function"
    },
    {
      "inputs": [
        {
          "internalType": "address",
          "name": "operator",
          "type": "address"
        },
        {
          "internalType": "bool",
          "name": "approved",
          "type": "bool"
        }
      ],
      "name": "setApprovalForAll",
      "outputs": [],
      "stateMutability": "nonpayable",
      "type": "function"
    },
    {
      "inputs": [
        {
          "internalType": "bytes4",
          "name": "interfaceId",
          "type": "bytes4"
        }
      ],
      "name": "supportsInterface",
      "outputs": [
        {
          "internalType": "bool",
          "name": "",
          "type": "bool"
        }
      ],
      "stateMutability": "view",
      "type": "function"
    },
    {
      "inputs": [],
      "name": "symbol",
      "outputs": [
        {
          "internalType": "string",
          "name": "",
          "type": "string"
        }
      ],
      "stateMutability": "view",
      "type": "function"
    },
    {
      "inputs": [
        {
          "internalType": "uint256",
          "name": "tokenId",
          "type": "uint256"
        }
      ],
      "name": "tokenURI",
      "outputs": [
        {
          "internalType": "string",
          "name": "",
          "type": "string"
        }
      ],
      "stateMutability": "view",
      "type": "function"
    },
    {
      "inputs": [
        {
          "internalType": "address",
          "name": "from",
          "type": "address"
        },
        {
          "internalType": "address",
          "name": "to",
          "type": "address"
        },
        {
          "internalType": "uint256",
          "name": "tokenId",
          "type": "uint256"
        }
      ],
      "name": "transferFrom",
      "outputs": [],
      "stateMutability": "nonpayable",
      "type": "function"
    },
    {
      "inputs": [
        {
          "internalType": "address",
          "name": "newOwner",
          "type": "address"
        }
      ],
      "name": "transferOwnership",
      "outputs": [],
      "stateMutability": "nonpayable",
      "type": "function"
    },
    {
      "inputs": [
        {
          "internalType": "address",
          "name": "_to",
          "type": "address"
        },
        {
          "internalType": "uint256",
          "name": "_tokenId",
          "type": "uint256"
        },
        {
          "internalType": "string",
          "name": "_newUri",
          "type": "string"
        }
      ],
      "name": "update_dNFT",
      "outputs": [],
      "stateMutability": "nonpayable",
      "type": "function"
    }
  ],
  "bytecode": "0x60806040523480156200001157600080fd5b506040518060400160405280600781526020017f4d79546f6b656e000000000000000000000000000000000000000000000000008152506040518060400160405280600381526020017f4d544b000000000000000000000000000000000000000000000000000000000081525081600090816200008f919062000412565b508060019081620000a1919062000412565b505050620000c4620000b8620000ca60201b60201c565b620000d260201b60201c565b620004f9565b600033905090565b6000600760009054906101000a900473ffffffffffffffffffffffffffffffffffffffff16905081600760006101000a81548173ffffffffffffffffffffffffffffffffffffffff021916908373ffffffffffffffffffffffffffffffffffffffff1602179055508173ffffffffffffffffffffffffffffffffffffffff168173ffffffffffffffffffffffffffffffffffffffff167f8be0079c531659141344cd1fd0a4f28419497f9722a3daafe3b4186f6b6457e060405160405180910390a35050565b600081519050919050565b7f4e487b7100000000000000000000000000000000000000000000000000000000600052604160045260246000fd5b7f4e487b7100000000000000000000000000000000000000000000000000000000600052602260045260246000fd5b600060028204905060018216806200021a57607f821691505b60208210810362000230576200022f620001d2565b5b50919050565b60008190508160005260206000209050919050565b60006020601f8301049050919050565b600082821b905092915050565b6000600883026200029a7fffffffffffffffffffffffffffffffffffffffffffffffffffffffffffffffff826200025b565b620002a686836200025b565b95508019841693508086168417925050509392505050565b6000819050919050565b6000819050919050565b6000620002f3620002ed620002e784620002be565b620002c8565b620002be565b9050919050565b6000819050919050565b6200030f83620002d2565b620003276200031e82620002fa565b84845462000268565b825550505050565b600090565b6200033e6200032f565b6200034b81848462000304565b505050565b5b8181101562000373576200036760008262000334565b60018101905062000351565b5050565b601f821115620003c2576200038c8162000236565b62000397846200024b565b81016020851015620003a7578190505b620003bf620003b6856200024b565b83018262000350565b50505b505050565b600082821c905092915050565b6000620003e760001984600802620003c7565b1980831691505092915050565b6000620004028383620003d4565b9150826002028217905092915050565b6200041d8262000198565b67ffffffffffffffff811115620004395762000438620001a3565b5b62000445825462000201565b6200045282828562000377565b600060209050601f8311600181146200048a576000841562000475578287015190505b620004818582620003f4565b865550620004f1565b601f1984166200049a8662000236565b60005b82811015620004c4578489015182556001820191506020850194506020810190506200049d565b86831015620004e45784890151620004e0601f891682620003d4565b8355505b6001600288020188555050505b505050505050565b6131d080620005096000396000f3fe608060405234801561001057600080fd5b50600436106101215760003560e01c8063715018a6116100ad578063c87b56dd11610071578063c87b56dd146102f2578063d204c45e14610322578063d8dce7131461033e578063e985e9c51461035a578063f2fde38b1461038a57610121565b8063715018a6146102745780638da5cb5b1461027e57806395d89b411461029c578063a22cb465146102ba578063b88d4fde146102d657610121565b806323b872dd116100f457806323b872dd146101c057806342842e0e146101dc57806342966c68146101f85780636352211e1461021457806370a082311461024457610121565b806301ffc9a71461012657806306fdde0314610156578063081812fc14610174578063095ea7b3146101a4575b600080fd5b610140600480360381019061013b9190611de2565b6103a6565b60405161014d9190611e2a565b60405180910390f35b61015e610488565b60405161016b9190611ed5565b60405180910390f35b61018e60048036038101906101899190611f2d565b61051a565b60405161019b9190611f9b565b60405180910390f35b6101be60048036038101906101b99190611fe2565b610560565b005b6101da60048036038101906101d59190612022565b610677565b005b6101f660048036038101906101f19190612022565b6106d7565b005b610212600480360381019061020d9190611f2d565b6106f7565b005b61022e60048036038101906102299190611f2d565b610753565b60405161023b9190611f9b565b60405180910390f35b61025e60048036038101906102599190612075565b610804565b60405161026b91906120b1565b60405180910390f35b61027c6108bb565b005b6102866108cf565b6040516102939190611f9b565b60405180910390f35b6102a46108f9565b6040516102b19190611ed5565b60405180910390f35b6102d460048036038101906102cf91906120f8565b61098b565b005b6102f060048036038101906102eb919061226d565b6109a1565b005b61030c60048036038101906103079190611f2d565b610a03565b6040516103199190611ed5565b60405180910390f35b61033c60048036038101906103379190612391565b610a15565b005b610358600480360381019061035391906123ed565b610aaa565b005b610374600480360381019061036f919061245c565b610b15565b6040516103819190611e2a565b60405180910390f35b6103a4600480360381019061039f9190612075565b610ba9565b005b60007f80ac58cd000000000000000000000000000000000000000000000000000000007bffffffffffffffffffffffffffffffffffffffffffffffffffffffff1916827bffffffffffffffffffffffffffffffffffffffffffffffffffffffff1916148061047157507f5b5e139f000000000000000000000000000000000000000000000000000000007bffffffffffffffffffffffffffffffffffffffffffffffffffffffff1916827bffffffffffffffffffffffffffffffffffffffffffffffffffffffff1916145b80610481575061048082610c2c565b5b9050919050565b606060008054610497906124cb565b80601f01602080910402602001604051908101604052809291908181526020018280546104c3906124cb565b80156105105780601f106104e557610100808354040283529160200191610510565b820191906000526020600020905b8154815290600101906020018083116104f357829003601f168201915b5050505050905090565b600061052582610c96565b6004600083815260200190815260200160002060009054906101000a900473ffffffffffffffffffffffffffffffffffffffff169050919050565b600061056b82610753565b90508073ffffffffffffffffffffffffffffffffffffffff168373ffffffffffffffffffffffffffffffffffffffff16036105db576040517f08c379a00000000000000000000000000000000000000000000000000000000081526004016105d29061256e565b60405180910390fd5b8073ffffffffffffffffffffffffffffffffffffffff166105fa610ce1565b73ffffffffffffffffffffffffffffffffffffffff161480610629575061062881610623610ce1565b610b15565b5b610668576040517f08c379a000000000000000000000000000000000000000000000000000000000815260040161065f90612600565b60405180910390fd5b6106728383610ce9565b505050565b610688610682610ce1565b82610da2565b6106c7576040517f08c379a00000000000000000000000000000000000000000000000000000000081526004016106be90612692565b60405180910390fd5b6106d2838383610e37565b505050565b6106f2838383604051806020016040528060008152506109a1565b505050565b610708610702610ce1565b82610da2565b610747576040517f08c379a000000000000000000000000000000000000000000000000000000000815260040161073e90612692565b60405180910390fd5b6107508161109d565b50565b6000806002600084815260200190815260200160002060009054906101000a900473ffffffffffffffffffffffffffffffffffffffff169050600073ffffffffffffffffffffffffffffffffffffffff168173ffffffffffffffffffffffffffffffffffffffff16036107fb576040517f08c379a00000000000000000000000000000000000000000000000000000000081526004016107f2906126fe565b60405180910390fd5b80915050919050565b60008073ffffffffffffffffffffffffffffffffffffffff168273ffffffffffffffffffffffffffffffffffffffff1603610874576040517f08c379a000000000000000000000000000000000000000000000000000000000815260040161086b90612790565b60405180910390fd5b600360008373ffffffffffffffffffffffffffffffffffffffff1673ffffffffffffffffffffffffffffffffffffffff168152602001908152602001600020549050919050565b6108c36110a9565b6108cd6000611127565b565b6000600760009054906101000a900473ffffffffffffffffffffffffffffffffffffffff16905090565b606060018054610908906124cb565b80601f0160208091040260200160405190810160405280929190818152602001828054610934906124cb565b80156109815780601f1061095657610100808354040283529160200191610981565b820191906000526020600020905b81548152906001019060200180831161096457829003601f168201915b5050505050905090565b61099d610996610ce1565b83836111ed565b5050565b6109b26109ac610ce1565b83610da2565b6109f1576040517f08c379a00000000000000000000000000000000000000000000000000000000081526004016109e890612692565b60405180910390fd5b6109fd84848484611359565b50505050565b6060610a0e826113b5565b9050919050565b610a1d6110a9565b6000610a2960086114c7565b9050610a3560086114d5565b610a3f83826114eb565b610a498183611509565b808373ffffffffffffffffffffffffffffffffffffffff16600073ffffffffffffffffffffffffffffffffffffffff167f5bf67bad05de13c87fbe093eb72404935b06a035b11594aa32341614074555fd60405160405180910390a4505050565b610ab48282611509565b818373ffffffffffffffffffffffffffffffffffffffff16600073ffffffffffffffffffffffffffffffffffffffff167f5bf67bad05de13c87fbe093eb72404935b06a035b11594aa32341614074555fd60405160405180910390a4505050565b6000600560008473ffffffffffffffffffffffffffffffffffffffff1673ffffffffffffffffffffffffffffffffffffffff16815260200190815260200160002060008373ffffffffffffffffffffffffffffffffffffffff1673ffffffffffffffffffffffffffffffffffffffff16815260200190815260200160002060009054906101000a900460ff16905092915050565b610bb16110a9565b600073ffffffffffffffffffffffffffffffffffffffff168173ffffffffffffffffffffffffffffffffffffffff1603610c20576040517f08c379a0000000000000000000000000000000000000000000000000000000008152600401610c1790612822565b60405180910390fd5b610c2981611127565b50565b60007f01ffc9a7000000000000000000000000000000000000000000000000000000007bffffffffffffffffffffffffffffffffffffffffffffffffffffffff1916827bffffffffffffffffffffffffffffffffffffffffffffffffffffffff1916149050919050565b610c9f81611576565b610cde576040517f08c379a0000000000000000000000000000000000000000000000000000000008152600401610cd5906126fe565b60405180910390fd5b50565b600033905090565b816004600083815260200190815260200160002060006101000a81548173ffffffffffffffffffffffffffffffffffffffff021916908373ffffffffffffffffffffffffffffffffffffffff160217905550808273ffffffffffffffffffffffffffffffffffffffff16610d5c83610753565b73ffffffffffffffffffffffffffffffffffffffff167f8c5be1e5ebec7d5bd14f71427d1e84f3dd0314c0f7b2291e5b200ac8c7c3b92560405160405180910390a45050565b600080610dae83610753565b90508073ffffffffffffffffffffffffffffffffffffffff168473ffffffffffffffffffffffffffffffffffffffff161480610df05750610def8185610b15565b5b80610e2e57508373ffffffffffffffffffffffffffffffffffffffff16610e168461051a565b73ffffffffffffffffffffffffffffffffffffffff16145b91505092915050565b8273ffffffffffffffffffffffffffffffffffffffff16610e5782610753565b73ffffffffffffffffffffffffffffffffffffffff1614610ead576040517f08c379a0000000000000000000000000000000000000000000000000000000008152600401610ea4906128b4565b60405180910390fd5b600073ffffffffffffffffffffffffffffffffffffffff168273ffffffffffffffffffffffffffffffffffffffff1603610f1c576040517f08c379a0000000000000000000000000000000000000000000000000000000008152600401610f1390612946565b60405180910390fd5b610f278383836115e2565b610f32600082610ce9565b6001600360008573ffffffffffffffffffffffffffffffffffffffff1673ffffffffffffffffffffffffffffffffffffffff1681526020019081526020016000206000828254610f829190612995565b925050819055506001600360008473ffffffffffffffffffffffffffffffffffffffff1673ffffffffffffffffffffffffffffffffffffffff1681526020019081526020016000206000828254610fd991906129c9565b92505081905550816002600083815260200190815260200160002060006101000a81548173ffffffffffffffffffffffffffffffffffffffff021916908373ffffffffffffffffffffffffffffffffffffffff160217905550808273ffffffffffffffffffffffffffffffffffffffff168473ffffffffffffffffffffffffffffffffffffffff167fddf252ad1be2c89b69c2b068fc378daa952ba7f163c4a11628f55a4df523b3ef60405160405180910390a46110988383836115e7565b505050565b6110a6816115ec565b50565b6110b1610ce1565b73ffffffffffffffffffffffffffffffffffffffff166110cf6108cf565b73ffffffffffffffffffffffffffffffffffffffff1614611125576040517f08c379a000000000000000000000000000000000000000000000000000000000815260040161111c90612a49565b60405180910390fd5b565b6000600760009054906101000a900473ffffffffffffffffffffffffffffffffffffffff16905081600760006101000a81548173ffffffffffffffffffffffffffffffffffffffff021916908373ffffffffffffffffffffffffffffffffffffffff1602179055508173ffffffffffffffffffffffffffffffffffffffff168173ffffffffffffffffffffffffffffffffffffffff167f8be0079c531659141344cd1fd0a4f28419497f9722a3daafe3b4186f6b6457e060405160405180910390a35050565b8173ffffffffffffffffffffffffffffffffffffffff168373ffffffffffffffffffffffffffffffffffffffff160361125b576040517f08c379a000000000000000000000000000000000000000000000000000000000815260040161125290612ab5565b60405180910390fd5b80600560008573ffffffffffffffffffffffffffffffffffffffff1673ffffffffffffffffffffffffffffffffffffffff16815260200190815260200160002060008473ffffffffffffffffffffffffffffffffffffffff1673ffffffffffffffffffffffffffffffffffffffff16815260200190815260200160002060006101000a81548160ff0219169083151502179055508173ffffffffffffffffffffffffffffffffffffffff168373ffffffffffffffffffffffffffffffffffffffff167f17307eab39ab6107e8899845ad3d59bd9653f200f220920489ca2b5937696c318360405161134c9190611e2a565b60405180910390a3505050565b611364848484610e37565b6113708484848461163f565b6113af576040517f08c379a00000000000000000000000000000000000000000000000000000000081526004016113a690612b47565b60405180910390fd5b50505050565b60606113c082610c96565b60006006600084815260200190815260200160002080546113e0906124cb565b80601f016020809104026020016040519081016040528092919081815260200182805461140c906124cb565b80156114595780601f1061142e57610100808354040283529160200191611459565b820191906000526020600020905b81548152906001019060200180831161143c57829003601f168201915b50505050509050600061146a6117c6565b9050600081510361147f5781925050506114c2565b6000825111156114b457808260405160200161149c929190612ba3565b604051602081830303815290604052925050506114c2565b6114bd846117dd565b925050505b919050565b600081600001549050919050565b6001816000016000828254019250508190555050565b611505828260405180602001604052806000815250611845565b5050565b61151282611576565b611551576040517f08c379a000000000000000000000000000000000000000000000000000000000815260040161154890612c39565b60405180910390fd5b806006600084815260200190815260200160002090816115719190612e05565b505050565b60008073ffffffffffffffffffffffffffffffffffffffff166002600084815260200190815260200160002060009054906101000a900473ffffffffffffffffffffffffffffffffffffffff1673ffffffffffffffffffffffffffffffffffffffff1614159050919050565b505050565b505050565b6115f5816118a0565b6000600660008381526020019081526020016000208054611615906124cb565b90501461163c5760066000828152602001908152602001600020600061163b9190611d19565b5b50565b60006116608473ffffffffffffffffffffffffffffffffffffffff166119bd565b156117b9578373ffffffffffffffffffffffffffffffffffffffff1663150b7a02611689610ce1565b8786866040518563ffffffff1660e01b81526004016116ab9493929190612f2c565b6020604051808303816000875af19250505080156116e757506040513d601f19601f820116820180604052508101906116e49190612f8d565b60015b611769573d8060008114611717576040519150601f19603f3d011682016040523d82523d6000602084013e61171c565b606091505b506000815103611761576040517f08c379a000000000000000000000000000000000000000000000000000000000815260040161175890612b47565b60405180910390fd5b805181602001fd5b63150b7a0260e01b7bffffffffffffffffffffffffffffffffffffffffffffffffffffffff1916817bffffffffffffffffffffffffffffffffffffffffffffffffffffffff1916149150506117be565b600190505b949350505050565b606060405180602001604052806000815250905090565b60606117e882610c96565b60006117f26117c6565b90506000815111611812576040518060200160405280600081525061183d565b8061181c846119e0565b60405160200161182d929190612ba3565b6040516020818303038152906040525b915050919050565b61184f8383611b40565b61185c600084848461163f565b61189b576040517f08c379a000000000000000000000000000000000000000000000000000000000815260040161189290612b47565b60405180910390fd5b505050565b60006118ab82610753565b90506118b9816000846115e2565b6118c4600083610ce9565b6001600360008373ffffffffffffffffffffffffffffffffffffffff1673ffffffffffffffffffffffffffffffffffffffff16815260200190815260200160002060008282546119149190612995565b925050819055506002600083815260200190815260200160002060006101000a81549073ffffffffffffffffffffffffffffffffffffffff021916905581600073ffffffffffffffffffffffffffffffffffffffff168273ffffffffffffffffffffffffffffffffffffffff167fddf252ad1be2c89b69c2b068fc378daa952ba7f163c4a11628f55a4df523b3ef60405160405180910390a46119b9816000846115e7565b5050565b6000808273ffffffffffffffffffffffffffffffffffffffff163b119050919050565b606060008203611a27576040518060400160405280600181526020017f30000000000000000000000000000000000000000000000000000000000000008152509050611b3b565b600082905060005b60008214611a59578080611a4290612fba565b915050600a82611a529190613031565b9150611a2f565b60008167ffffffffffffffff811115611a7557611a74612142565b5b6040519080825280601f01601f191660200182016040528015611aa75781602001600182028036833780820191505090505b5090505b60008514611b3457600182611ac09190612995565b9150600a85611acf9190613062565b6030611adb91906129c9565b60f81b818381518110611af157611af0613093565b5b60200101907effffffffffffffffffffffffffffffffffffffffffffffffffffffffffffff1916908160001a905350600a85611b2d9190613031565b9450611aab565b8093505050505b919050565b600073ffffffffffffffffffffffffffffffffffffffff168273ffffffffffffffffffffffffffffffffffffffff1603611baf576040517f08c379a0000000000000000000000000000000000000000000000000000000008152600401611ba69061310e565b60405180910390fd5b611bb881611576565b15611bf8576040517f08c379a0000000000000000000000000000000000000000000000000000000008152600401611bef9061317a565b60405180910390fd5b611c04600083836115e2565b6001600360008473ffffffffffffffffffffffffffffffffffffffff1673ffffffffffffffffffffffffffffffffffffffff1681526020019081526020016000206000828254611c5491906129c9565b92505081905550816002600083815260200190815260200160002060006101000a81548173ffffffffffffffffffffffffffffffffffffffff021916908373ffffffffffffffffffffffffffffffffffffffff160217905550808273ffffffffffffffffffffffffffffffffffffffff16600073ffffffffffffffffffffffffffffffffffffffff167fddf252ad1be2c89b69c2b068fc378daa952ba7f163c4a11628f55a4df523b3ef60405160405180910390a4611d15600083836115e7565b5050565b508054611d25906124cb565b6000825580601f10611d375750611d56565b601f016020900490600052602060002090810190611d559190611d59565b5b50565b5b80821115611d72576000816000905550600101611d5a565b5090565b6000604051905090565b600080fd5b600080fd5b60007fffffffff0000000000000000000000000000000000000000000000000000000082169050919050565b611dbf81611d8a565b8114611dca57600080fd5b50565b600081359050611ddc81611db6565b92915050565b600060208284031215611df857611df7611d80565b5b6000611e0684828501611dcd565b91505092915050565b60008115159050919050565b611e2481611e0f565b82525050565b6000602082019050611e3f6000830184611e1b565b92915050565b600081519050919050565b600082825260208201905092915050565b60005b83811015611e7f578082015181840152602081019050611e64565b60008484015250505050565b6000601f19601f8301169050919050565b6000611ea782611e45565b611eb18185611e50565b9350611ec1818560208601611e61565b611eca81611e8b565b840191505092915050565b60006020820190508181036000830152611eef8184611e9c565b905092915050565b6000819050919050565b611f0a81611ef7565b8114611f1557600080fd5b50565b600081359050611f2781611f01565b92915050565b600060208284031215611f4357611f42611d80565b5b6000611f5184828501611f18565b91505092915050565b600073ffffffffffffffffffffffffffffffffffffffff82169050919050565b6000611f8582611f5a565b9050919050565b611f9581611f7a565b82525050565b6000602082019050611fb06000830184611f8c565b92915050565b611fbf81611f7a565b8114611fca57600080fd5b50565b600081359050611fdc81611fb6565b92915050565b60008060408385031215611ff957611ff8611d80565b5b600061200785828601611fcd565b925050602061201885828601611f18565b9150509250929050565b60008060006060848603121561203b5761203a611d80565b5b600061204986828701611fcd565b935050602061205a86828701611fcd565b925050604061206b86828701611f18565b9150509250925092565b60006020828403121561208b5761208a611d80565b5b600061209984828501611fcd565b91505092915050565b6120ab81611ef7565b82525050565b60006020820190506120c660008301846120a2565b92915050565b6120d581611e0f565b81146120e057600080fd5b50565b6000813590506120f2816120cc565b92915050565b6000806040838503121561210f5761210e611d80565b5b600061211d85828601611fcd565b925050602061212e858286016120e3565b9150509250929050565b600080fd5b600080fd5b7f4e487b7100000000000000000000000000000000000000000000000000000000600052604160045260246000fd5b61217a82611e8b565b810181811067ffffffffffffffff8211171561219957612198612142565b5b80604052505050565b60006121ac611d76565b90506121b88282612171565b919050565b600067ffffffffffffffff8211156121d8576121d7612142565b5b6121e182611e8b565b9050602081019050919050565b82818337600083830152505050565b600061221061220b846121bd565b6121a2565b90508281526020810184848401111561222c5761222b61213d565b5b6122378482856121ee565b509392505050565b600082601f83011261225457612253612138565b5b81356122648482602086016121fd565b91505092915050565b6000806000806080858703121561228757612286611d80565b5b600061229587828801611fcd565b94505060206122a687828801611fcd565b93505060406122b787828801611f18565b925050606085013567ffffffffffffffff8111156122d8576122d7611d85565b5b6122e48782880161223f565b91505092959194509250565b600067ffffffffffffffff82111561230b5761230a612142565b5b61231482611e8b565b9050602081019050919050565b600061233461232f846122f0565b6121a2565b9050828152602081018484840111156123505761234f61213d565b5b61235b8482856121ee565b509392505050565b600082601f83011261237857612377612138565b5b8135612388848260208601612321565b91505092915050565b600080604083850312156123a8576123a7611d80565b5b60006123b685828601611fcd565b925050602083013567ffffffffffffffff8111156123d7576123d6611d85565b5b6123e385828601612363565b9150509250929050565b60008060006060848603121561240657612405611d80565b5b600061241486828701611fcd565b935050602061242586828701611f18565b925050604084013567ffffffffffffffff81111561244657612445611d85565b5b61245286828701612363565b9150509250925092565b6000806040838503121561247357612472611d80565b5b600061248185828601611fcd565b925050602061249285828601611fcd565b9150509250929050565b7f4e487b7100000000000000000000000000000000000000000000000000000000600052602260045260246000fd5b600060028204905060018216806124e357607f821691505b6020821081036124f6576124f561249c565b5b50919050565b7f4552433732313a20617070726f76616c20746f2063757272656e74206f776e6560008201527f7200000000000000000000000000000000000000000000000000000000000000602082015250565b6000612558602183611e50565b9150612563826124fc565b604082019050919050565b600060208201905081810360008301526125878161254b565b9050919050565b7f4552433732313a20617070726f76652063616c6c6572206973206e6f7420746f60008201527f6b656e206f776e6572206e6f7220617070726f76656420666f7220616c6c0000602082015250565b60006125ea603e83611e50565b91506125f58261258e565b604082019050919050565b60006020820190508181036000830152612619816125dd565b9050919050565b7f4552433732313a2063616c6c6572206973206e6f7420746f6b656e206f776e6560008201527f72206e6f7220617070726f766564000000000000000000000000000000000000602082015250565b600061267c602e83611e50565b915061268782612620565b604082019050919050565b600060208201905081810360008301526126ab8161266f565b9050919050565b7f4552433732313a20696e76616c696420746f6b656e2049440000000000000000600082015250565b60006126e8601883611e50565b91506126f3826126b2565b602082019050919050565b60006020820190508181036000830152612717816126db565b9050919050565b7f4552433732313a2061646472657373207a65726f206973206e6f74206120766160008201527f6c6964206f776e65720000000000000000000000000000000000000000000000602082015250565b600061277a602983611e50565b91506127858261271e565b604082019050919050565b600060208201905081810360008301526127a98161276d565b9050919050565b7f4f776e61626c653a206e6577206f776e657220697320746865207a65726f206160008201527f6464726573730000000000000000000000000000000000000000000000000000602082015250565b600061280c602683611e50565b9150612817826127b0565b604082019050919050565b6000602082019050818103600083015261283b816127ff565b9050919050565b7f4552433732313a207472616e736665722066726f6d20696e636f72726563742060008201527f6f776e6572000000000000000000000000000000000000000000000000000000602082015250565b600061289e602583611e50565b91506128a982612842565b604082019050919050565b600060208201905081810360008301526128cd81612891565b9050919050565b7f4552433732313a207472616e7366657220746f20746865207a65726f2061646460008201527f7265737300000000000000000000000000000000000000000000000000000000602082015250565b6000612930602483611e50565b915061293b826128d4565b604082019050919050565b6000602082019050818103600083015261295f81612923565b9050919050565b7f4e487b7100000000000000000000000000000000000000000000000000000000600052601160045260246000fd5b60006129a082611ef7565b91506129ab83611ef7565b92508282039050818111156129c3576129c2612966565b5b92915050565b60006129d482611ef7565b91506129df83611ef7565b92508282019050808211156129f7576129f6612966565b5b92915050565b7f4f776e61626c653a2063616c6c6572206973206e6f7420746865206f776e6572600082015250565b6000612a33602083611e50565b9150612a3e826129fd565b602082019050919050565b60006020820190508181036000830152612a6281612a26565b9050919050565b7f4552433732313a20617070726f766520746f2063616c6c657200000000000000600082015250565b6000612a9f601983611e50565b9150612aaa82612a69565b602082019050919050565b60006020820190508181036000830152612ace81612a92565b9050919050565b7f4552433732313a207472616e7366657220746f206e6f6e20455243373231526560008201527f63656976657220696d706c656d656e7465720000000000000000000000000000602082015250565b6000612b31603283611e50565b9150612b3c82612ad5565b604082019050919050565b60006020820190508181036000830152612b6081612b24565b9050919050565b600081905092915050565b6000612b7d82611e45565b612b878185612b67565b9350612b97818560208601611e61565b80840191505092915050565b6000612baf8285612b72565b9150612bbb8284612b72565b91508190509392505050565b7f45524337323155524953746f726167653a2055524920736574206f66206e6f6e60008201527f6578697374656e7420746f6b656e000000000000000000000000000000000000602082015250565b6000612c23602e83611e50565b9150612c2e82612bc7565b604082019050919050565b60006020820190508181036000830152612c5281612c16565b9050919050565b60008190508160005260206000209050919050565b60006020601f8301049050919050565b600082821b905092915050565b600060088302612cbb7fffffffffffffffffffffffffffffffffffffffffffffffffffffffffffffffff82612c7e565b612cc58683612c7e565b95508019841693508086168417925050509392505050565b6000819050919050565b6000612d02612cfd612cf884611ef7565b612cdd565b611ef7565b9050919050565b6000819050919050565b612d1c83612ce7565b612d30612d2882612d09565b848454612c8b565b825550505050565b600090565b612d45612d38565b612d50818484612d13565b505050565b5b81811015612d7457612d69600082612d3d565b600181019050612d56565b5050565b601f821115612db957612d8a81612c59565b612d9384612c6e565b81016020851015612da2578190505b612db6612dae85612c6e565b830182612d55565b50505b505050565b600082821c905092915050565b6000612ddc60001984600802612dbe565b1980831691505092915050565b6000612df58383612dcb565b9150826002028217905092915050565b612e0e82611e45565b67ffffffffffffffff811115612e2757612e26612142565b5b612e3182546124cb565b612e3c828285612d78565b600060209050601f831160018114612e6f5760008415612e5d578287015190505b612e678582612de9565b865550612ecf565b601f198416612e7d86612c59565b60005b82811015612ea557848901518255600182019150602085019450602081019050612e80565b86831015612ec25784890151612ebe601f891682612dcb565b8355505b6001600288020188555050505b505050505050565b600081519050919050565b600082825260208201905092915050565b6000612efe82612ed7565b612f088185612ee2565b9350612f18818560208601611e61565b612f2181611e8b565b840191505092915050565b6000608082019050612f416000830187611f8c565b612f4e6020830186611f8c565b612f5b60408301856120a2565b8181036060830152612f6d8184612ef3565b905095945050505050565b600081519050612f8781611db6565b92915050565b600060208284031215612fa357612fa2611d80565b5b6000612fb184828501612f78565b91505092915050565b6000612fc582611ef7565b91507fffffffffffffffffffffffffffffffffffffffffffffffffffffffffffffffff8203612ff757612ff6612966565b5b600182019050919050565b7f4e487b7100000000000000000000000000000000000000000000000000000000600052601260045260246000fd5b600061303c82611ef7565b915061304783611ef7565b92508261305757613056613002565b5b828204905092915050565b600061306d82611ef7565b915061307883611ef7565b92508261308857613087613002565b5b828206905092915050565b7f4e487b7100000000000000000000000000000000000000000000000000000000600052603260045260246000fd5b7f4552433732313a206d696e7420746f20746865207a65726f2061646472657373600082015250565b60006130f8602083611e50565b9150613103826130c2565b602082019050919050565b60006020820190508181036000830152613127816130eb565b9050919050565b7f4552433732313a20746f6b656e20616c7265616479206d696e74656400000000600082015250565b6000613164601c83611e50565b915061316f8261312e565b602082019050919050565b6000602082019050818103600083015261319381613157565b905091905056fea26469706673582212207e4c64af8403aeddcae90bff121437d1658b32ea7841377718f6abae12f717c364736f6c63430008100033",
  "linkReferences": {},
  "deployedLinkReferences": {}
}